{
  "address": "0xf4eB22A9c71e4c97797d40b7D8069489cFaDE21f",
  "abi": [
    {
      "inputs": [
        {
          "internalType": "address",
          "name": "priceFeedAddress",
          "type": "address"
        }
      ],
      "stateMutability": "nonpayable",
      "type": "constructor"
    },
    {
      "inputs": [],
      "name": "FundMe__NotOwner",
      "type": "error"
    },
    {
      "stateMutability": "payable",
      "type": "fallback"
    },
    {
      "inputs": [],
      "name": "MINIMUM_USD",
      "outputs": [
        {
          "internalType": "uint256",
          "name": "",
          "type": "uint256"
        }
      ],
      "stateMutability": "view",
      "type": "function"
    },
    {
      "inputs": [],
      "name": "cheaperWithdraw",
      "outputs": [],
      "stateMutability": "payable",
      "type": "function"
    },
    {
      "inputs": [],
      "name": "fund",
      "outputs": [],
      "stateMutability": "payable",
      "type": "function"
    },
    {
      "inputs": [
        {
          "internalType": "address",
          "name": "funder",
          "type": "address"
        }
      ],
      "name": "getAddressToAmountFunded",
      "outputs": [
        {
          "internalType": "uint256",
          "name": "",
          "type": "uint256"
        }
      ],
      "stateMutability": "view",
      "type": "function"
    },
    {
      "inputs": [
        {
          "internalType": "uint256",
          "name": "index",
          "type": "uint256"
        }
      ],
      "name": "getFunder",
      "outputs": [
        {
          "internalType": "address",
          "name": "",
          "type": "address"
        }
      ],
      "stateMutability": "view",
      "type": "function"
    },
    {
      "inputs": [],
      "name": "getOwner",
      "outputs": [
        {
          "internalType": "address",
          "name": "",
          "type": "address"
        }
      ],
      "stateMutability": "view",
      "type": "function"
    },
    {
      "inputs": [],
      "name": "getPriceFeed",
      "outputs": [
        {
          "internalType": "contract AggregatorV3Interface",
          "name": "",
          "type": "address"
        }
      ],
      "stateMutability": "view",
      "type": "function"
    },
    {
      "inputs": [],
      "name": "withdraw",
      "outputs": [],
      "stateMutability": "nonpayable",
      "type": "function"
    },
    {
      "stateMutability": "payable",
      "type": "receive"
    }
  ],
  "transactionHash": "0xd18a23a39f4cbc8ce3fcf31ba8c781ac67451267ee6690153b1018a67f12790d",
  "args": [
    "0xD4a33860578De61DBAbDc8BFdb98FD742fA7028e"
  ],
  "numDeployments": 2,
  "solcInputHash": "71456c3cb5e95ca842b171825e47ba9a",
  "bytecode": "0x60a06040523480156200001157600080fd5b50604051620012813803806200128183398181016040528101906200003791906200011f565b3373ffffffffffffffffffffffffffffffffffffffff1660808173ffffffffffffffffffffffffffffffffffffffff1660601b81525050806000806101000a81548173ffffffffffffffffffffffffffffffffffffffff021916908373ffffffffffffffffffffffffffffffffffffffff1602179055505062000151565b600080fd5b600073ffffffffffffffffffffffffffffffffffffffff82169050919050565b6000620000e782620000ba565b9050919050565b620000f981620000da565b81146200010557600080fd5b50565b6000815190506200011981620000ee565b92915050565b600060208284031215620001385762000137620000b5565b5b6000620001488482850162000108565b91505092915050565b60805160601c6110fc620001856000396000818161033001528181610580015281816105cf01526107c601526110fc6000f3fe60806040526004361061007f5760003560e01c80639e87a5cd1161004e5780639e87a5cd14610142578063b60d42881461016d578063be2693f014610177578063d7b4750c146101815761008e565b80630343fb25146100985780633ccfd60b146100d55780636b69a592146100ec578063893d20e8146101175761008e565b3661008e5761008c6101be565b005b6100966101be565b005b3480156100a457600080fd5b506100bf60048036038101906100ba9190610a8a565b6102e5565b6040516100cc9190610ad0565b60405180910390f35b3480156100e157600080fd5b506100ea61032e565b005b3480156100f857600080fd5b5061010161056f565b60405161010e9190610ad0565b60405180910390f35b34801561012357600080fd5b5061012c61057c565b6040516101399190610afa565b60405180910390f35b34801561014e57600080fd5b506101576105a4565b6040516101649190610b74565b60405180910390f35b6101756101be565b005b61017f6105cd565b005b34801561018d57600080fd5b506101a860048036038101906101a39190610bbb565b61085c565b6040516101b59190610afa565b60405180910390f35b6802b5e3af16b18800006101fb60008054906101000a900473ffffffffffffffffffffffffffffffffffffffff16346108a490919063ffffffff16565b101561023c576040517f08c379a000000000000000000000000000000000000000000000000000000000815260040161023390610c45565b60405180910390fd5b6001339080600181540180825580915050600190039060005260206000200160009091909190916101000a81548173ffffffffffffffffffffffffffffffffffffffff021916908373ffffffffffffffffffffffffffffffffffffffff16021790555034600260003373ffffffffffffffffffffffffffffffffffffffff1673ffffffffffffffffffffffffffffffffffffffff16815260200190815260200160002081905550565b6000600260008373ffffffffffffffffffffffffffffffffffffffff1673ffffffffffffffffffffffffffffffffffffffff168152602001908152602001600020549050919050565b7f000000000000000000000000000000000000000000000000000000000000000073ffffffffffffffffffffffffffffffffffffffff163373ffffffffffffffffffffffffffffffffffffffff16146103b3576040517f579610db00000000000000000000000000000000000000000000000000000000815260040160405180910390fd5b60005b60018054905081101561045f576000600182815481106103d9576103d8610c65565b5b9060005260206000200160009054906101000a900473ffffffffffffffffffffffffffffffffffffffff1690506000600260008373ffffffffffffffffffffffffffffffffffffffff1673ffffffffffffffffffffffffffffffffffffffff1681526020019081526020016000208190555050808061045790610cc3565b9150506103b6565b50600067ffffffffffffffff81111561047b5761047a610d0c565b5b6040519080825280602002602001820160405280156104a95781602001602082028036833780820191505090505b50600190805190602001906104bf929190610980565b5060003373ffffffffffffffffffffffffffffffffffffffff16476040516104e690610d6c565b60006040518083038185875af1925050503d8060008114610523576040519150601f19603f3d011682016040523d82523d6000602084013e610528565b606091505b505090508061056c576040517f08c379a000000000000000000000000000000000000000000000000000000000815260040161056390610dcd565b60405180910390fd5b50565b6802b5e3af16b188000081565b60007f0000000000000000000000000000000000000000000000000000000000000000905090565b60008060009054906101000a900473ffffffffffffffffffffffffffffffffffffffff16905090565b7f000000000000000000000000000000000000000000000000000000000000000073ffffffffffffffffffffffffffffffffffffffff163373ffffffffffffffffffffffffffffffffffffffff1614610652576040517f579610db00000000000000000000000000000000000000000000000000000000815260040160405180910390fd5b600060018054806020026020016040519081016040528092919081815260200182805480156106d657602002820191906000526020600020905b8160009054906101000a900473ffffffffffffffffffffffffffffffffffffffff1673ffffffffffffffffffffffffffffffffffffffff168152602001906001019080831161068c575b5050505050905060005b81518110156107615760008282815181106106fe576106fd610c65565b5b602002602001015190506000600260008373ffffffffffffffffffffffffffffffffffffffff1673ffffffffffffffffffffffffffffffffffffffff1681526020019081526020016000208190555050808061075990610cc3565b9150506106e0565b50600067ffffffffffffffff81111561077d5761077c610d0c565b5b6040519080825280602002602001820160405280156107ab5781602001602082028036833780820191505090505b50600190805190602001906107c1929190610980565b5060007f000000000000000000000000000000000000000000000000000000000000000073ffffffffffffffffffffffffffffffffffffffff164760405161080890610d6c565b60006040518083038185875af1925050503d8060008114610845576040519150601f19603f3d011682016040523d82523d6000602084013e61084a565b606091505b505090508061085857600080fd5b5050565b60006001828154811061087257610871610c65565b5b9060005260206000200160009054906101000a900473ffffffffffffffffffffffffffffffffffffffff169050919050565b6000806108b0836108e0565b90506000670de0b6b3a764000085836108c99190610ded565b6108d39190610e76565b9050809250505092915050565b6000808273ffffffffffffffffffffffffffffffffffffffff1663feaf968c6040518163ffffffff1660e01b815260040160a06040518083038186803b15801561092957600080fd5b505afa15801561093d573d6000803e3d6000fd5b505050506040513d601f19601f820116820180604052508101906109619190610f34565b5050509150506402540be400816109789190610faf565b915050919050565b8280548282559060005260206000209081019282156109f9579160200282015b828111156109f85782518260006101000a81548173ffffffffffffffffffffffffffffffffffffffff021916908373ffffffffffffffffffffffffffffffffffffffff160217905550916020019190600101906109a0565b5b509050610a069190610a0a565b5090565b5b80821115610a23576000816000905550600101610a0b565b5090565b600080fd5b600073ffffffffffffffffffffffffffffffffffffffff82169050919050565b6000610a5782610a2c565b9050919050565b610a6781610a4c565b8114610a7257600080fd5b50565b600081359050610a8481610a5e565b92915050565b600060208284031215610aa057610a9f610a27565b5b6000610aae84828501610a75565b91505092915050565b6000819050919050565b610aca81610ab7565b82525050565b6000602082019050610ae56000830184610ac1565b92915050565b610af481610a4c565b82525050565b6000602082019050610b0f6000830184610aeb565b92915050565b6000819050919050565b6000610b3a610b35610b3084610a2c565b610b15565b610a2c565b9050919050565b6000610b4c82610b1f565b9050919050565b6000610b5e82610b41565b9050919050565b610b6e81610b53565b82525050565b6000602082019050610b896000830184610b65565b92915050565b610b9881610ab7565b8114610ba357600080fd5b50565b600081359050610bb581610b8f565b92915050565b600060208284031215610bd157610bd0610a27565b5b6000610bdf84828501610ba6565b91505092915050565b600082825260208201905092915050565b7f596f75206e65656420746f207370656e64206d6f726520657468210000000000600082015250565b6000610c2f601b83610be8565b9150610c3a82610bf9565b602082019050919050565b60006020820190508181036000830152610c5e81610c22565b9050919050565b7f4e487b7100000000000000000000000000000000000000000000000000000000600052603260045260246000fd5b7f4e487b7100000000000000000000000000000000000000000000000000000000600052601160045260246000fd5b6000610cce82610ab7565b91507fffffffffffffffffffffffffffffffffffffffffffffffffffffffffffffffff821415610d0157610d00610c94565b5b600182019050919050565b7f4e487b7100000000000000000000000000000000000000000000000000000000600052604160045260246000fd5b600081905092915050565b50565b6000610d56600083610d3b565b9150610d6182610d46565b600082019050919050565b6000610d7782610d49565b9150819050919050565b7f43616c6c206661696c6564000000000000000000000000000000000000000000600082015250565b6000610db7600b83610be8565b9150610dc282610d81565b602082019050919050565b60006020820190508181036000830152610de681610daa565b9050919050565b6000610df882610ab7565b9150610e0383610ab7565b9250817fffffffffffffffffffffffffffffffffffffffffffffffffffffffffffffffff0483118215151615610e3c57610e3b610c94565b5b828202905092915050565b7f4e487b7100000000000000000000000000000000000000000000000000000000600052601260045260246000fd5b6000610e8182610ab7565b9150610e8c83610ab7565b925082610e9c57610e9b610e47565b5b828204905092915050565b600069ffffffffffffffffffff82169050919050565b610ec681610ea7565b8114610ed157600080fd5b50565b600081519050610ee381610ebd565b92915050565b6000819050919050565b610efc81610ee9565b8114610f0757600080fd5b50565b600081519050610f1981610ef3565b92915050565b600081519050610f2e81610b8f565b92915050565b600080600080600060a08688031215610f5057610f4f610a27565b5b6000610f5e88828901610ed4565b9550506020610f6f88828901610f0a565b9450506040610f8088828901610f1f565b9350506060610f9188828901610f1f565b9250506080610fa288828901610ed4565b9150509295509295909350565b6000610fba82610ee9565b9150610fc583610ee9565b9250827f7fffffffffffffffffffffffffffffffffffffffffffffffffffffffffffffff048211600084136000841316161561100457611003610c94565b5b817f8000000000000000000000000000000000000000000000000000000000000000058312600084126000841316161561104157611040610c94565b5b827f8000000000000000000000000000000000000000000000000000000000000000058212600084136000841216161561107e5761107d610c94565b5b827f7fffffffffffffffffffffffffffffffffffffffffffffffffffffffffffffff05821260008412600084121616156110bb576110ba610c94565b5b82820290509291505056fea2646970667358221220e63591ab580b183608963dbcb31c8dbd72afdf486469386db1ed6f229e5c8d9164736f6c63430008080033",
  "devdoc": {
    "author": "AAIIWITF",
    "details": "This implements price feeds as our library",
    "kind": "dev",
    "methods": {
      "fund()": {
        "details": "This implements price feeds as our library"
      }
    },
    "title": "A contract for crowd funding",
    "version": 1
  },
  "userdoc": {
    "kind": "user",
    "methods": {
      "fund()": {
        "notice": "This function funds this contract"
      }
    },
    "notice": "This conract is to demo a sample funding contract",
    "version": 1
  },
  "storageLayout": {
    "storage": [
      {
        "astId": 63,
        "contract": "contracts/FundMe.sol:FundMe",
        "label": "s_priceFeed",
        "offset": 0,
        "slot": "0",
        "type": "t_contract(AggregatorV3Interface)45"
      },
      {
        "astId": 66,
        "contract": "contracts/FundMe.sol:FundMe",
        "label": "s_funders",
        "offset": 0,
        "slot": "1",
        "type": "t_array(t_address)dyn_storage"
      },
      {
        "astId": 70,
        "contract": "contracts/FundMe.sol:FundMe",
        "label": "s_addressToAmountFunded",
        "offset": 0,
        "slot": "2",
        "type": "t_mapping(t_address,t_uint256)"
      }
    ],
    "types": {
      "t_address": {
        "encoding": "inplace",
        "label": "address",
        "numberOfBytes": "20"
      },
      "t_array(t_address)dyn_storage": {
        "base": "t_address",
        "encoding": "dynamic_array",
        "label": "address[]",
        "numberOfBytes": "32"
      },
      "t_contract(AggregatorV3Interface)45": {
        "encoding": "inplace",
        "label": "contract AggregatorV3Interface",
        "numberOfBytes": "20"
      },
      "t_mapping(t_address,t_uint256)": {
        "encoding": "mapping",
        "key": "t_address",
        "label": "mapping(address => uint256)",
        "numberOfBytes": "32",
        "value": "t_uint256"
      },
      "t_uint256": {
        "encoding": "inplace",
        "label": "uint256",
        "numberOfBytes": "32"
      }
    }
  }
}